{
  "contractName": "CasualPay",
  "abi": [
    {
      "constant": true,
      "inputs": [],
      "name": "active",
      "outputs": [
        {
          "name": "",
          "type": "bool"
        }
      ],
      "payable": false,
      "stateMutability": "view",
      "type": "function"
    },
    {
      "constant": false,
      "inputs": [],
      "name": "stop",
      "outputs": [],
      "payable": false,
      "stateMutability": "nonpayable",
      "type": "function"
    },
    {
      "constant": false,
      "inputs": [],
      "name": "withdraw",
      "outputs": [],
      "payable": true,
      "stateMutability": "payable",
      "type": "function"
    },
    {
      "constant": false,
      "inputs": [],
      "name": "close",
      "outputs": [],
      "payable": false,
      "stateMutability": "nonpayable",
      "type": "function"
    },
    {
      "constant": false,
      "inputs": [],
      "name": "payout",
      "outputs": [],
      "payable": true,
      "stateMutability": "payable",
      "type": "function"
    },
    {
      "constant": true,
      "inputs": [],
      "name": "getOwner",
      "outputs": [
        {
          "name": "",
          "type": "address"
        }
      ],
      "payable": false,
      "stateMutability": "view",
      "type": "function"
    },
    {
      "inputs": [
        {
          "name": "_employer",
          "type": "address"
        },
        {
          "name": "_employee",
          "type": "address"
        },
        {
          "name": "_pay",
          "type": "uint256"
        }
      ],
      "payable": false,
      "stateMutability": "nonpayable",
      "type": "constructor"
    },
    {
      "anonymous": false,
      "inputs": [],
      "name": "PaymentCreationEvent",
      "type": "event"
    },
    {
      "anonymous": false,
      "inputs": [
        {
          "indexed": false,
          "name": "msg",
          "type": "bytes16"
        },
        {
          "indexed": false,
          "name": "pay",
          "type": "uint256"
        },
        {
          "indexed": false,
          "name": "datePaid",
          "type": "uint256"
        }
      ],
      "name": "PaymentEvent",
      "type": "event"
    }
  ],
  "bytecode": "0x606060405260a060405190810160405280600062ffffff16815260200162049d4062ffffff16815260200162093a8062ffffff1681526020016212750062ffffff1681526020016224ea0062ffffff1681525060089060056100629291906101f8565b50341561006e57600080fd5b6040516060806108cd8339810160405280805190602001909190805190602001909190805190602001909190505082828260008060016000806101000a81548160ff02191690831515021790555033600060016101000a81548173ffffffffffffffffffffffffffffffffffffffff021916908373ffffffffffffffffffffffffffffffffffffffff16021790555084600160006101000a81548173ffffffffffffffffffffffffffffffffffffffff021916908373ffffffffffffffffffffffffffffffffffffffff16021790555083600260006101000a81548173ffffffffffffffffffffffffffffffffffffffff021916908373ffffffffffffffffffffffffffffffffffffffff1602179055508260048190555060088281548110151561019557fe5b9060005260206000209001546005819055508042016006819055504260038190555060006007819055507f477e2e8dd85e51edd0507b2218057a80d5dfe5e0ed7f88ed485ac61d14136aea60405160405180910390a15050505050505050610271565b82805482825590600052602060002090810192821561023b579160200282015b8281111561023a578251829062ffffff16905591602001919060010190610218565b5b509050610248919061024c565b5090565b61026e91905b8082111561026a576000816000905550600101610252565b5090565b90565b61064d806102806000396000f300606060405260043610610078576000357c0100000000000000000000000000000000000000000000000000000000900463ffffffff16806302fb0c5e1461007d57806307da68f5146100aa5780633ccfd60b146100bf57806343d726d6146100c957806363bd1d4a146100de578063893d20e8146100e8575b600080fd5b341561008857600080fd5b61009061013d565b604051808215151515815260200191505060405180910390f35b34156100b557600080fd5b6100bd61014f565b005b6100c76101c7565b005b34156100d457600080fd5b6100dc6103d6565b005b6100e661046d565b005b34156100f357600080fd5b6100fb6105dd565b604051808273ffffffffffffffffffffffffffffffffffffffff1673ffffffffffffffffffffffffffffffffffffffff16815260200191505060405180910390f35b6000809054906101000a900460ff1681565b600060019054906101000a900473ffffffffffffffffffffffffffffffffffffffff1673ffffffffffffffffffffffffffffffffffffffff163373ffffffffffffffffffffffffffffffffffffffff161415156101ab57600080fd5b60008060006101000a81548160ff021916908315150217905550565b6000600260009054906101000a900473ffffffffffffffffffffffffffffffffffffffff1673ffffffffffffffffffffffffffffffffffffffff163373ffffffffffffffffffffffffffffffffffffffff1614151561022557600080fd5b600060075411151561023657600080fd5b3073ffffffffffffffffffffffffffffffffffffffff163160075411156102c5577f9e71ef5bec9d77bf31fcafa42f70e6dcee713d7d762834f70e84e725cc43f75c6007544260405180807f50656e64696e67000000000000000000000000000000000000000000000000008152506020018381526020018281526020019250505060405180910390a16103d3565b3073ffffffffffffffffffffffffffffffffffffffff16319050600260009054906101000a900473ffffffffffffffffffffffffffffffffffffffff1673ffffffffffffffffffffffffffffffffffffffff166108fc6007549081150290604051600060405180830381858888f19350505050151561034357600080fd5b60075481033073ffffffffffffffffffffffffffffffffffffffff163114151561036957fe5b7f9e71ef5bec9d77bf31fcafa42f70e6dcee713d7d762834f70e84e725cc43f75c6007544260405180807f53756363657373000000000000000000000000000000000000000000000000008152506020018381526020018281526020019250505060405180910390a15b50565b600060019054906101000a900473ffffffffffffffffffffffffffffffffffffffff1673ffffffffffffffffffffffffffffffffffffffff163373ffffffffffffffffffffffffffffffffffffffff1614151561043257600080fd5b600060019054906101000a900473ffffffffffffffffffffffffffffffffffffffff1673ffffffffffffffffffffffffffffffffffffffff16ff5b600160009054906101000a900473ffffffffffffffffffffffffffffffffffffffff1673ffffffffffffffffffffffffffffffffffffffff163373ffffffffffffffffffffffffffffffffffffffff161415156104c957600080fd5b6104d1610606565b60006007541115156104e257600080fd5b3073ffffffffffffffffffffffffffffffffffffffff16316007541115610571577f9e71ef5bec9d77bf31fcafa42f70e6dcee713d7d762834f70e84e725cc43f75c6007544260405180807f50656e64696e67000000000000000000000000000000000000000000000000008152506020018381526020018281526020019250505060405180910390a16105db565b7f9e71ef5bec9d77bf31fcafa42f70e6dcee713d7d762834f70e84e725cc43f75c6007544260405180807f4170706c696564000000000000000000000000000000000000000000000000008152506020018381526020018281526020019250505060405180910390a15b565b60008060019054906101000a900473ffffffffffffffffffffffffffffffffffffffff16905090565b426003819055506004546007600082825401925050819055505600a165627a7a72305820c2e052d9aecc6a9d24a8924602909f29ba82169962b30ab904fd39bdcd1a90540029",
  "source": "pragma solidity ^0.4.16;\r\n\r\nimport \"./SafeContract.sol\";\r\nimport \"./SafeMath.sol\";\r\n\r\ncontract EmploymentRecord is Owned, Mutex {\r\n    enum EmploymentType {OWNER, PERM, CASUAL, CONTRACT}\r\n    event EmployeeCreationEvent( );\r\n    event CheckPaymentEvent(address paymentContract);\r\n    event AccessEmployeeEvent(\r\n        bool active,\r\n        EmploymentType status,\r\n        bytes16 fName,\r\n        bytes16 lName\r\n    );\r\n    struct Employee {\r\n        bool active;\r\n        EmploymentType status;\r\n        bytes16 fName;\r\n        bytes16 lName;\r\n    }\r\n\r\n    // maps employee address to a employee struct\r\n    mapping (address => Employee) public employees;\r\n    address[] public employeeIndex;\r\n\r\n    // maps employee address to contract address\r\n    mapping (address => address) public paymentContracts;\r\n    address[] public paymentIndex;\r\n\r\n    function setEmployee(\r\n        EmploymentType _status,\r\n        address _addr,\r\n        bytes16 _fName,\r\n        bytes16 _lName\r\n    )\r\n        public\r\n        onlyOwner\r\n    {\r\n        require(employees[_addr].active == false);\r\n\r\n        // Creating new Employee and recording the address\r\n        Employee memory e = Employee(true,_status, _fName, _lName);\r\n        employees[_addr] = e;\r\n        employeeIndex.push(_addr);\r\n\r\n        EmployeeCreationEvent();\r\n    }\r\n\r\n    // Access an Employee by its address, and returns an event for the DApp\r\n    function accessEmployee(address _addr) external noReentrancy returns(bool) {\r\n        Employee memory e = employees[_addr];\r\n        AccessEmployeeEvent(e.active,e.status,e.fName,e.lName);\r\n        return e.active;\r\n    }\r\n\r\n    // Consider making payable for during creation\r\n    function createPayment(\r\n        EmploymentType _status,\r\n        address _employer,\r\n        address _employee,\r\n        uint256 _pay,\r\n        uint256 _freq,\r\n        uint256 _end\r\n    )\r\n        public\r\n        onlyOwner\r\n        returns(address _newPayment)\r\n    {\r\n        require(paymentIndex.length < 100);\r\n        require(!employees[_employee].active);\r\n\r\n        Payment p = Payment(paymentContracts[_employee]);\r\n        require(!p.active());\r\n\r\n        // Creating different payment contracts based off the employment types\r\n        if (_status == EmploymentRecord.EmploymentType.PERM || _status == EmploymentRecord.EmploymentType.OWNER) {\r\n            PermanentPay _perm = new PermanentPay(_employer,_employee,_pay,_freq);\r\n            paymentContracts[_employee] = _perm;\r\n            paymentIndex.push(_perm);\r\n            return _perm;\r\n        } else if (_status == EmploymentRecord.EmploymentType.CASUAL) {\r\n            CasualPay _casual = new CasualPay(_employer,_employee,_pay);\r\n            paymentContracts[_employee] = _casual;\r\n            paymentIndex.push(_casual);\r\n            return _casual;\r\n        } else if (_status == EmploymentRecord.EmploymentType.CONTRACT) {\r\n            ContractPay _contract = new ContractPay(_employer,_employee,_pay,_freq,_end);\r\n            paymentContracts[_employee] = _contract;\r\n            paymentIndex.push(_contract);\r\n            return _contract;\r\n        } else {\r\n            revert();\r\n        }\r\n        CheckPaymentEvent(paymentContracts[_employee]);\r\n    }\r\n\r\n    function checkPayment() external noReentrancy {\r\n        // Ensuring that only the exact employee can access and that the employee is active\r\n        require(employees[msg.sender].active);\r\n        CheckPaymentEvent(paymentContracts[msg.sender]);\r\n    }\r\n\r\n    function ownerCheckPayment(address _employee) external onlyOwner {\r\n        // Ensuring the only the employee is active\r\n        require(employees[_employee].active);\r\n        CheckPaymentEvent(paymentContracts[_employee]);\r\n    }\r\n\r\n\r\n    function updateEmployeeActiveFlag(address _employee, bool _active) public onlyOwner {\r\n        employees[_employee].active = _active;\r\n    }\r\n\r\n    function updateEmployeeStatus(address _employee, EmploymentType _status) public onlyOwner {\r\n        employees[_employee].status = _status;\r\n    }\r\n\r\n    function getPaymentContractCount( ) public constant returns(uint256 _length) {\r\n        return paymentIndex.length;\r\n    }\r\n}\r\n\r\n\r\ncontract Payment is Owned {\r\n    event PaymentCreationEvent( );\r\n    event PaymentEvent (\r\n        bytes16 msg,\r\n        uint256 pay,\r\n        uint256 datePaid\r\n    );\r\n\r\n    address employer; address employee;\r\n    uint256 lastUpdate; uint256 payPer; uint256 freq; uint256 endTime; uint256 owed;\r\n    uint256[] private FREQUENCIES = [0, 0.5 weeks, 1 weeks, 2 weeks, 4 weeks];\r\n\r\n    // Considering making it payable\r\n    function Payment(\r\n        address _employer,\r\n        address _employee,\r\n        uint256 _pay,\r\n        uint256 _freq,\r\n        uint256 _endTime\r\n    )\r\n        public\r\n    {\r\n        employer = _employer;\r\n        employee = _employee;\r\n        payPer = _pay;\r\n        freq = FREQUENCIES[_freq];\r\n        endTime = now + _endTime;\r\n        lastUpdate = now;\r\n        owed = 0;\r\n        PaymentCreationEvent();\r\n    }\r\n\r\n    // Functions only when payout was previously called\r\n    function withdraw( ) external payable {\r\n        // Withdrawal Authorization, Employee\r\n        require(msg.sender == employee);\r\n        require(owed > 0);\r\n\r\n        // Money Transfer\r\n        if (owed > this.balance) {\r\n            PaymentEvent(\"Pending\",owed,now);\r\n        } else {\r\n            uint balanceBefore = this.balance;\r\n            employee.transfer(owed);\r\n            assert(this.balance == balanceBefore-owed);\r\n\r\n            PaymentEvent(\"Success\",owed,now);\r\n        }\r\n    }\r\n\r\n    // Is required to refill a Payment contract for the Employee to withdraw\r\n    function payout( ) external payable {\r\n        // Payout Authorization, Employer\r\n        require(msg.sender == employer);\r\n        setPay();\r\n        require(owed > 0);\r\n\r\n        // Ensuring that Payment is capable of paying\r\n        if (owed > this.balance) {\r\n            PaymentEvent(\"Pending\",owed,now);\r\n        } else {\r\n            PaymentEvent(\"Applied\",owed,now);\r\n        }\r\n    }\r\n\r\n    function setPay( ) internal;\r\n}\r\n\r\n\r\ncontract PermanentPay is Payment {\r\n    function PermanentPay(\r\n        address _employer,\r\n        address _employee,\r\n        uint256 _pay,\r\n        uint256 _freq\r\n    )\r\n        Payment(_employer,_employee, _pay, _freq, 0)\r\n        public\r\n    { }\r\n\r\n    // Based off of freq\r\n    function setPay( ) internal {\r\n        uint256 freqCount = (now-lastUpdate)%freq;\r\n        lastUpdate = now;\r\n        owed += freqCount*payPer;\r\n    }\r\n}\r\ncontract CasualPay is Payment {\r\n    function CasualPay(\r\n        address _employer,\r\n        address _employee,\r\n        uint256 _pay\r\n    )\r\n        Payment(_employer,_employee,_pay,0,0)\r\n        public\r\n     { }\r\n\r\n    function setPay( ) internal {\r\n        lastUpdate = now;\r\n        owed += payPer;\r\n    }\r\n}\r\ncontract ContractPay is Payment {\r\n    function ContractPay(\r\n        address _employer,\r\n        address _employee,\r\n        uint256 _pay,\r\n        uint256 _freq,\r\n        uint256 _endTime\r\n    )\r\n        Payment(_employer,_employee,_pay,_freq,_endTime)\r\n        public \r\n     { }\r\n\r\n    // Based off of freq and contract endTime\r\n    function setPay( ) internal {\r\n        uint256 benchmark = (endTime - now >= 0) ? now : endTime;\r\n        uint256 freqCount = (benchmark-lastUpdate)%freq;\r\n        lastUpdate = now;\r\n        owed += freqCount*payPer;\r\n    }\r\n}\r\n\r\n",
  "sourcePath": "C:\\Users\\Caleb Yang\\Documents\\SourceTree\\ethTax\\src\\PayRoll\\contracts\\PayRoll.sol",
  "compiler": {
    "name": "solc",
    "version": "0.4.19+commit.c4cbbb05.Emscripten.clang"
  },
  "schemaVersion": "1.0.1",
  "updatedAt": "2018-03-02T19:52:26.540Z"
}