{
  "contractName": "EmploymentRecord",
  "abi": [
    {
      "constant": true,
      "inputs": [],
      "name": "active",
      "outputs": [
        {
          "name": "",
          "type": "bool"
        }
      ],
      "payable": false,
      "stateMutability": "view",
      "type": "function"
    },
    {
      "constant": false,
      "inputs": [],
      "name": "stop",
      "outputs": [],
      "payable": false,
      "stateMutability": "nonpayable",
      "type": "function"
    },
    {
      "constant": false,
      "inputs": [],
      "name": "close",
      "outputs": [],
      "payable": false,
      "stateMutability": "nonpayable",
      "type": "function"
    },
    {
      "constant": true,
      "inputs": [
        {
          "name": "",
          "type": "address"
        }
      ],
      "name": "paymentContracts",
      "outputs": [
        {
          "name": "",
          "type": "address"
        }
      ],
      "payable": false,
      "stateMutability": "view",
      "type": "function"
    },
    {
      "constant": true,
      "inputs": [],
      "name": "getOwner",
      "outputs": [
        {
          "name": "",
          "type": "address"
        }
      ],
      "payable": false,
      "stateMutability": "view",
      "type": "function"
    },
    {
      "constant": true,
      "inputs": [
        {
          "name": "",
          "type": "uint256"
        }
      ],
      "name": "employeeIndex",
      "outputs": [
        {
          "name": "",
          "type": "address"
        }
      ],
      "payable": false,
      "stateMutability": "view",
      "type": "function"
    },
    {
      "constant": true,
      "inputs": [
        {
          "name": "",
          "type": "address"
        }
      ],
      "name": "employees",
      "outputs": [
        {
          "name": "active",
          "type": "bool"
        },
        {
          "name": "status",
          "type": "uint8"
        },
        {
          "name": "fName",
          "type": "bytes16"
        },
        {
          "name": "lName",
          "type": "bytes16"
        }
      ],
      "payable": false,
      "stateMutability": "view",
      "type": "function"
    },
    {
      "constant": true,
      "inputs": [
        {
          "name": "",
          "type": "uint256"
        }
      ],
      "name": "paymentIndex",
      "outputs": [
        {
          "name": "",
          "type": "address"
        }
      ],
      "payable": false,
      "stateMutability": "view",
      "type": "function"
    },
    {
      "anonymous": false,
      "inputs": [],
      "name": "EmployeeCreationEvent",
      "type": "event"
    },
    {
      "anonymous": false,
      "inputs": [
        {
          "indexed": false,
          "name": "paymentContract",
          "type": "address"
        }
      ],
      "name": "CheckPaymentEvent",
      "type": "event"
    },
    {
      "anonymous": false,
      "inputs": [
        {
          "indexed": false,
          "name": "active",
          "type": "bool"
        },
        {
          "indexed": false,
          "name": "status",
          "type": "uint8"
        },
        {
          "indexed": false,
          "name": "fName",
          "type": "bytes16"
        },
        {
          "indexed": false,
          "name": "lName",
          "type": "bytes16"
        }
      ],
      "name": "AccessEmployeeEvent",
      "type": "event"
    },
    {
      "constant": false,
      "inputs": [
        {
          "name": "_status",
          "type": "uint8"
        },
        {
          "name": "_addr",
          "type": "address"
        },
        {
          "name": "_fName",
          "type": "bytes16"
        },
        {
          "name": "_lName",
          "type": "bytes16"
        }
      ],
      "name": "setEmployee",
      "outputs": [],
      "payable": false,
      "stateMutability": "nonpayable",
      "type": "function"
    },
    {
      "constant": false,
      "inputs": [
        {
          "name": "_addr",
          "type": "address"
        }
      ],
      "name": "accessEmployee",
      "outputs": [
        {
          "name": "",
          "type": "bool"
        }
      ],
      "payable": false,
      "stateMutability": "nonpayable",
      "type": "function"
    },
    {
      "constant": false,
      "inputs": [
        {
          "name": "_status",
          "type": "uint8"
        },
        {
          "name": "_employer",
          "type": "address"
        },
        {
          "name": "_employee",
          "type": "address"
        },
        {
          "name": "_pay",
          "type": "uint256"
        },
        {
          "name": "_freq",
          "type": "uint256"
        },
        {
          "name": "_end",
          "type": "uint256"
        }
      ],
      "name": "createPayment",
      "outputs": [
        {
          "name": "_newPayment",
          "type": "address"
        }
      ],
      "payable": false,
      "stateMutability": "nonpayable",
      "type": "function"
    },
    {
      "constant": false,
      "inputs": [],
      "name": "checkPayment",
      "outputs": [],
      "payable": false,
      "stateMutability": "nonpayable",
      "type": "function"
    },
    {
      "constant": false,
      "inputs": [
        {
          "name": "_employee",
          "type": "address"
        }
      ],
      "name": "ownerCheckPayment",
      "outputs": [],
      "payable": false,
      "stateMutability": "nonpayable",
      "type": "function"
    },
    {
      "constant": false,
      "inputs": [
        {
          "name": "_employee",
          "type": "address"
        },
        {
          "name": "_active",
          "type": "bool"
        }
      ],
      "name": "updateEmployeeActiveFlag",
      "outputs": [],
      "payable": false,
      "stateMutability": "nonpayable",
      "type": "function"
    },
    {
      "constant": false,
      "inputs": [
        {
          "name": "_employee",
          "type": "address"
        },
        {
          "name": "_status",
          "type": "uint8"
        }
      ],
      "name": "updateEmployeeStatus",
      "outputs": [],
      "payable": false,
      "stateMutability": "nonpayable",
      "type": "function"
    },
    {
      "constant": true,
      "inputs": [],
      "name": "getPaymentContractCount",
      "outputs": [
        {
          "name": "_length",
          "type": "uint256"
        }
      ],
      "payable": false,
      "stateMutability": "view",
      "type": "function"
    }
  ],
  "bytecode": "0x606060405260016000806101000a81548160ff02191690831515021790555033600060016101000a81548173ffffffffffffffffffffffffffffffffffffffff021916908373ffffffffffffffffffffffffffffffffffffffff1602179055506133bf8061006e6000396000f300606060405260043610620000f7576000357c0100000000000000000000000000000000000000000000000000000000900463ffffffff16806302fb0c5e14620000fc57806307653294146200012c57806307da68f51462000180578063265cb13b146200019857806343d726d6146200021857806347630797146200023057806360886f8014620002f25780636dab4944146200036e57806379a8416e14620003aa578063893d20e814620003c2578063a7fb79a9146200041a578063b48b41e71462000480578063d067894714620004c8578063d18ccdd5146200058c578063f86a326614620005b8578063fda7c38914620005ff575b600080fd5b34156200010857600080fd5b6200011262000665565b604051808215151515815260200191505060405180910390f35b34156200013857600080fd5b62000166600480803573ffffffffffffffffffffffffffffffffffffffff1690602001909190505062000677565b604051808215151515815260200191505060405180910390f35b34156200018c57600080fd5b62000196620008d1565b005b3415620001a457600080fd5b62000216600480803560ff1690602001909190803573ffffffffffffffffffffffffffffffffffffffff169060200190919080356fffffffffffffffffffffffffffffffff19169060200190919080356fffffffffffffffffffffffffffffffff19169060200190919050506200094a565b005b34156200022457600080fd5b6200022e62000c14565b005b34156200023c57600080fd5b620002b0600480803560ff1690602001909190803573ffffffffffffffffffffffffffffffffffffffff1690602001909190803573ffffffffffffffffffffffffffffffffffffffff1690602001909190803590602001909190803590602001909190803590602001909190505062000cac565b604051808273ffffffffffffffffffffffffffffffffffffffff1673ffffffffffffffffffffffffffffffffffffffff16815260200191505060405180910390f35b3415620002fe57600080fd5b6200032c600480803573ffffffffffffffffffffffffffffffffffffffff16906020019091905050620013b4565b604051808273ffffffffffffffffffffffffffffffffffffffff1673ffffffffffffffffffffffffffffffffffffffff16815260200191505060405180910390f35b34156200037a57600080fd5b620003a8600480803573ffffffffffffffffffffffffffffffffffffffff16906020019091905050620013e7565b005b3415620003b657600080fd5b620003c062001565565b005b3415620003ce57600080fd5b620003d8620016d7565b604051808273ffffffffffffffffffffffffffffffffffffffff1673ffffffffffffffffffffffffffffffffffffffff16815260200191505060405180910390f35b34156200042657600080fd5b6200043e600480803590602001909190505062001700565b604051808273ffffffffffffffffffffffffffffffffffffffff1673ffffffffffffffffffffffffffffffffffffffff16815260200191505060405180910390f35b34156200048c57600080fd5b620004c6600480803573ffffffffffffffffffffffffffffffffffffffff1690602001909190803560ff1690602001909190505062001740565b005b3415620004d457600080fd5b62000502600480803573ffffffffffffffffffffffffffffffffffffffff1690602001909190505062001805565b60405180851515151581526020018460038111156200051d57fe5b60ff168152602001836fffffffffffffffffffffffffffffffff19166fffffffffffffffffffffffffffffffff19168152602001826fffffffffffffffffffffffffffffffff19166fffffffffffffffffffffffffffffffff1916815260200194505050505060405180910390f35b34156200059857600080fd5b620005a262001889565b6040518082815260200191505060405180910390f35b3415620005c457600080fd5b620005fd600480803573ffffffffffffffffffffffffffffffffffffffff16906020019091908035151590602001909190505062001896565b005b34156200060b57600080fd5b62000623600480803590602001909190505062001951565b604051808273ffffffffffffffffffffffffffffffffffffffff1673ffffffffffffffffffffffffffffffffffffffff16815260200191505060405180910390f35b6000809054906101000a900460ff1681565b60006200068362001991565b600060159054906101000a900460ff16151515620006a057600080fd5b6001600060156101000a81548160ff021916908315150217905550600160008473ffffffffffffffffffffffffffffffffffffffff1673ffffffffffffffffffffffffffffffffffffffff168152602001908152602001600020608060405190810160405290816000820160009054906101000a900460ff161515151581526020016000820160019054906101000a900460ff1660038111156200074057fe5b60038111156200074c57fe5b81526020016000820160029054906101000a9004700100000000000000000000000000000000026fffffffffffffffffffffffffffffffff19166fffffffffffffffffffffffffffffffff191681526020016001820160009054906101000a9004700100000000000000000000000000000000026fffffffffffffffffffffffffffffffff19166fffffffffffffffffffffffffffffffff19168152505090507f18f18cae417842940d459796d7ad9d52bfcaa82a245a5b09a32235b8e437edb9816000015182602001518360400151846060015160405180851515151581526020018460038111156200083c57fe5b60ff168152602001836fffffffffffffffffffffffffffffffff19166fffffffffffffffffffffffffffffffff19168152602001826fffffffffffffffffffffffffffffffff19166fffffffffffffffffffffffffffffffff1916815260200194505050505060405180910390a18060000151915060008060156101000a81548160ff02191690831515021790555050919050565b600060019054906101000a900473ffffffffffffffffffffffffffffffffffffffff1673ffffffffffffffffffffffffffffffffffffffff163373ffffffffffffffffffffffffffffffffffffffff161415156200092e57600080fd5b60008060006101000a81548160ff021916908315150217905550565b6200095462001991565b600060019054906101000a900473ffffffffffffffffffffffffffffffffffffffff1673ffffffffffffffffffffffffffffffffffffffff163373ffffffffffffffffffffffffffffffffffffffff16141515620009b157600080fd5b60001515600160008673ffffffffffffffffffffffffffffffffffffffff1673ffffffffffffffffffffffffffffffffffffffff16815260200190815260200160002060000160009054906101000a900460ff16151514151562000a1457600080fd5b60806040519081016040528060011515815260200186600381111562000a3657fe5b8152602001846fffffffffffffffffffffffffffffffff19168152602001836fffffffffffffffffffffffffffffffff1916815250905080600160008673ffffffffffffffffffffffffffffffffffffffff1673ffffffffffffffffffffffffffffffffffffffff16815260200190815260200160002060008201518160000160006101000a81548160ff02191690831515021790555060208201518160000160016101000a81548160ff0219169083600381111562000af257fe5b021790555060408201518160000160026101000a8154816fffffffffffffffffffffffffffffffff02191690837001000000000000000000000000000000009004021790555060608201518160010160006101000a8154816fffffffffffffffffffffffffffffffff0219169083700100000000000000000000000000000000900402179055509050506002805480600101828162000b929190620019ee565b9160005260206000209001600086909190916101000a81548173ffffffffffffffffffffffffffffffffffffffff021916908373ffffffffffffffffffffffffffffffffffffffff160217905550507f517d7fe6dccdf3aff3d895657c82ae5fe2977d9b5aa45075c586e933352bfcce60405160405180910390a15050505050565b600060019054906101000a900473ffffffffffffffffffffffffffffffffffffffff1673ffffffffffffffffffffffffffffffffffffffff163373ffffffffffffffffffffffffffffffffffffffff1614151562000c7157600080fd5b600060019054906101000a900473ffffffffffffffffffffffffffffffffffffffff1673ffffffffffffffffffffffffffffffffffffffff16ff5b60008060008060008060019054906101000a900473ffffffffffffffffffffffffffffffffffffffff1673ffffffffffffffffffffffffffffffffffffffff163373ffffffffffffffffffffffffffffffffffffffff1614151562000d1057600080fd5b606460048054905010151562000d2557600080fd5b600160008a73ffffffffffffffffffffffffffffffffffffffff1673ffffffffffffffffffffffffffffffffffffffff16815260200190815260200160002060000160009054906101000a900460ff1615151562000d8257600080fd5b600360008a73ffffffffffffffffffffffffffffffffffffffff1673ffffffffffffffffffffffffffffffffffffffff16815260200190815260200160002060009054906101000a900473ffffffffffffffffffffffffffffffffffffffff1693508373ffffffffffffffffffffffffffffffffffffffff166302fb0c5e6000604051602001526040518163ffffffff167c0100000000000000000000000000000000000000000000000000000000028152600401602060405180830381600087803b151562000e5157600080fd5b6102c65a03f1151562000e6357600080fd5b5050506040518051905015151562000e7a57600080fd5b6001600381111562000e8857fe5b8b600381111562000e9557fe5b148062000eba57506000600381111562000eab57fe5b8b600381111562000eb857fe5b145b156200104a578989898962000ece62001a1d565b808573ffffffffffffffffffffffffffffffffffffffff1673ffffffffffffffffffffffffffffffffffffffff1681526020018473ffffffffffffffffffffffffffffffffffffffff1673ffffffffffffffffffffffffffffffffffffffff168152602001838152602001828152602001945050505050604051809103906000f080151562000f5c57600080fd5b925082600360008b73ffffffffffffffffffffffffffffffffffffffff1673ffffffffffffffffffffffffffffffffffffffff16815260200190815260200160002060006101000a81548173ffffffffffffffffffffffffffffffffffffffff021916908373ffffffffffffffffffffffffffffffffffffffff1602179055506004805480600101828162000ff29190620019ee565b9160005260206000209001600085909190916101000a81548173ffffffffffffffffffffffffffffffffffffffff021916908373ffffffffffffffffffffffffffffffffffffffff16021790555050829450620013a6565b600260038111156200105857fe5b8b60038111156200106557fe5b1415620011ee578989896200107962001a2e565b808473ffffffffffffffffffffffffffffffffffffffff1673ffffffffffffffffffffffffffffffffffffffff1681526020018373ffffffffffffffffffffffffffffffffffffffff1673ffffffffffffffffffffffffffffffffffffffff1681526020018281526020019350505050604051809103906000f08015156200110057600080fd5b915081600360008b73ffffffffffffffffffffffffffffffffffffffff1673ffffffffffffffffffffffffffffffffffffffff16815260200190815260200160002060006101000a81548173ffffffffffffffffffffffffffffffffffffffff021916908373ffffffffffffffffffffffffffffffffffffffff16021790555060048054806001018281620011969190620019ee565b9160005260206000209001600084909190916101000a81548173ffffffffffffffffffffffffffffffffffffffff021916908373ffffffffffffffffffffffffffffffffffffffff16021790555050819450620013a6565b600380811115620011fb57fe5b8b60038111156200120857fe5b1415620013a15789898989896200121e62001a3f565b808673ffffffffffffffffffffffffffffffffffffffff1673ffffffffffffffffffffffffffffffffffffffff1681526020018573ffffffffffffffffffffffffffffffffffffffff1673ffffffffffffffffffffffffffffffffffffffff16815260200184815260200183815260200182815260200195505050505050604051809103906000f0801515620012b357600080fd5b905080600360008b73ffffffffffffffffffffffffffffffffffffffff1673ffffffffffffffffffffffffffffffffffffffff16815260200190815260200160002060006101000a81548173ffffffffffffffffffffffffffffffffffffffff021916908373ffffffffffffffffffffffffffffffffffffffff16021790555060048054806001018281620013499190620019ee565b9160005260206000209001600083909190916101000a81548173ffffffffffffffffffffffffffffffffffffffff021916908373ffffffffffffffffffffffffffffffffffffffff16021790555050809450620013a6565b600080fd5b505050509695505050505050565b60036020528060005260406000206000915054906101000a900473ffffffffffffffffffffffffffffffffffffffff1681565b600060019054906101000a900473ffffffffffffffffffffffffffffffffffffffff1673ffffffffffffffffffffffffffffffffffffffff163373ffffffffffffffffffffffffffffffffffffffff161415156200144457600080fd5b600160008273ffffffffffffffffffffffffffffffffffffffff1673ffffffffffffffffffffffffffffffffffffffff16815260200190815260200160002060000160009054906101000a900460ff161515620014a057600080fd5b7fd8b98b85e1823493e2519f24e5dfa1b6fd4b9dd8e4965e64096fcfe08b0a4a94600360008373ffffffffffffffffffffffffffffffffffffffff1673ffffffffffffffffffffffffffffffffffffffff16815260200190815260200160002060009054906101000a900473ffffffffffffffffffffffffffffffffffffffff16604051808273ffffffffffffffffffffffffffffffffffffffff1673ffffffffffffffffffffffffffffffffffffffff16815260200191505060405180910390a150565b600060159054906101000a900460ff161515156200158257600080fd5b6001600060156101000a81548160ff021916908315150217905550600160003373ffffffffffffffffffffffffffffffffffffffff1673ffffffffffffffffffffffffffffffffffffffff16815260200190815260200160002060000160009054906101000a900460ff161515620015f957600080fd5b7fd8b98b85e1823493e2519f24e5dfa1b6fd4b9dd8e4965e64096fcfe08b0a4a94600360003373ffffffffffffffffffffffffffffffffffffffff1673ffffffffffffffffffffffffffffffffffffffff16815260200190815260200160002060009054906101000a900473ffffffffffffffffffffffffffffffffffffffff16604051808273ffffffffffffffffffffffffffffffffffffffff1673ffffffffffffffffffffffffffffffffffffffff16815260200191505060405180910390a160008060156101000a81548160ff021916908315150217905550565b60008060019054906101000a900473ffffffffffffffffffffffffffffffffffffffff16905090565b6002818154811015156200171057fe5b90600052602060002090016000915054906101000a900473ffffffffffffffffffffffffffffffffffffffff1681565b600060019054906101000a900473ffffffffffffffffffffffffffffffffffffffff1673ffffffffffffffffffffffffffffffffffffffff163373ffffffffffffffffffffffffffffffffffffffff161415156200179d57600080fd5b80600160008473ffffffffffffffffffffffffffffffffffffffff1673ffffffffffffffffffffffffffffffffffffffff16815260200190815260200160002060000160016101000a81548160ff02191690836003811115620017fc57fe5b02179055505050565b60016020528060005260406000206000915090508060000160009054906101000a900460ff16908060000160019054906101000a900460ff16908060000160029054906101000a900470010000000000000000000000000000000002908060010160009054906101000a900470010000000000000000000000000000000002905084565b6000600480549050905090565b600060019054906101000a900473ffffffffffffffffffffffffffffffffffffffff1673ffffffffffffffffffffffffffffffffffffffff163373ffffffffffffffffffffffffffffffffffffffff16141515620018f357600080fd5b80600160008473ffffffffffffffffffffffffffffffffffffffff1673ffffffffffffffffffffffffffffffffffffffff16815260200190815260200160002060000160006101000a81548160ff0219169083151502179055505050565b6004818154811015156200196157fe5b90600052602060002090016000915054906101000a900473ffffffffffffffffffffffffffffffffffffffff1681565b60806040519081016040528060001515815260200160006003811115620019b457fe5b815260200160006fffffffffffffffffffffffffffffffff1916815260200160006fffffffffffffffffffffffffffffffff191681525090565b81548183558181151162001a185781836000526020600020918201910162001a17919062001a50565b5b505050565b60405161085e8062001a7983390190565b60405161083b80620022d783390190565b6040516108828062002b1283390190565b62001a7591905b8082111562001a7157600081600090555060010162001a57565b5090565b905600606060405260a060405190810160405280600062ffffff16815260200162049d4062ffffff16815260200162093a8062ffffff1681526020016212750062ffffff1681526020016224ea0062ffffff168152506008906005610062929190610200565b50341561006e57600080fd5b60405160808061085e8339810160405280805190602001909190805190602001909190805190602001909190805190602001909190505083838383600060016000806101000a81548160ff02191690831515021790555033600060016101000a81548173ffffffffffffffffffffffffffffffffffffffff021916908373ffffffffffffffffffffffffffffffffffffffff16021790555084600160006101000a81548173ffffffffffffffffffffffffffffffffffffffff021916908373ffffffffffffffffffffffffffffffffffffffff16021790555083600260006101000a81548173ffffffffffffffffffffffffffffffffffffffff021916908373ffffffffffffffffffffffffffffffffffffffff1602179055508260048190555060088281548110151561019e57fe5b906000526020600020900154600581905550806006819055504260038190555060006007819055507f477e2e8dd85e51edd0507b2218057a80d5dfe5e0ed7f88ed485ac61d14136aea60405160405180910390a1505050505050505050610279565b828054828255906000526020600020908101928215610243579160200282015b82811115610242578251829062ffffff16905591602001919060010190610220565b5b5090506102509190610254565b5090565b61027691905b8082111561027257600081600090555060010161025a565b5090565b90565b6105d6806102886000396000f300606060405260043610610078576000357c0100000000000000000000000000000000000000000000000000000000900463ffffffff16806302fb0c5e1461007d57806307da68f5146100aa5780633ccfd60b146100bf57806343d726d6146100c957806363bd1d4a146100de578063893d20e8146100e8575b600080fd5b341561008857600080fd5b61009061013d565b604051808215151515815260200191505060405180910390f35b34156100b557600080fd5b6100bd61014f565b005b6100c76101c7565b005b34156100d457600080fd5b6100dc610346565b005b6100e66103dd565b005b34156100f357600080fd5b6100fb61054d565b604051808273ffffffffffffffffffffffffffffffffffffffff1673ffffffffffffffffffffffffffffffffffffffff16815260200191505060405180910390f35b6000809054906101000a900460ff1681565b600060019054906101000a900473ffffffffffffffffffffffffffffffffffffffff1673ffffffffffffffffffffffffffffffffffffffff163373ffffffffffffffffffffffffffffffffffffffff161415156101ab57600080fd5b60008060006101000a81548160ff021916908315150217905550565b6000600260009054906101000a900473ffffffffffffffffffffffffffffffffffffffff1673ffffffffffffffffffffffffffffffffffffffff163373ffffffffffffffffffffffffffffffffffffffff1614151561022557600080fd5b600060075411151561023657600080fd5b3073ffffffffffffffffffffffffffffffffffffffff16319050600260009054906101000a900473ffffffffffffffffffffffffffffffffffffffff1673ffffffffffffffffffffffffffffffffffffffff166108fc6007549081150290604051600060405180830381858888f1935050505015156102b457600080fd5b60075481033073ffffffffffffffffffffffffffffffffffffffff16311415156102da57fe5b7f9e71ef5bec9d77bf31fcafa42f70e6dcee713d7d762834f70e84e725cc43f75c6007544260405180807f53756363657373000000000000000000000000000000000000000000000000008152506020018381526020018281526020019250505060405180910390a150565b600060019054906101000a900473ffffffffffffffffffffffffffffffffffffffff1673ffffffffffffffffffffffffffffffffffffffff163373ffffffffffffffffffffffffffffffffffffffff161415156103a257600080fd5b600060019054906101000a900473ffffffffffffffffffffffffffffffffffffffff1673ffffffffffffffffffffffffffffffffffffffff16ff5b600160009054906101000a900473ffffffffffffffffffffffffffffffffffffffff1673ffffffffffffffffffffffffffffffffffffffff163373ffffffffffffffffffffffffffffffffffffffff1614151561043957600080fd5b610441610576565b600060075411151561045257600080fd5b3073ffffffffffffffffffffffffffffffffffffffff163160075411156104e1577f9e71ef5bec9d77bf31fcafa42f70e6dcee713d7d762834f70e84e725cc43f75c6007544260405180807f50656e64696e67000000000000000000000000000000000000000000000000008152506020018381526020018281526020019250505060405180910390a161054b565b7f9e71ef5bec9d77bf31fcafa42f70e6dcee713d7d762834f70e84e725cc43f75c6007544260405180807f4170706c696564000000000000000000000000000000000000000000000000008152506020018381526020018281526020019250505060405180910390a15b565b60008060019054906101000a900473ffffffffffffffffffffffffffffffffffffffff16905090565b6000600554600354420381151561058957fe5b069050426003819055506004548102600760008282540192505081905550505600a165627a7a72305820046cc04afaca1ffb69f4dcf31fade607cb6f3ce166bf17ef2c2c9779bf3b6a7d0029606060405260a060405190810160405280600062ffffff16815260200162049d4062ffffff16815260200162093a8062ffffff1681526020016212750062ffffff1681526020016224ea0062ffffff1681525060089060056100629291906101f6565b50341561006e57600080fd5b60405160608061083b8339810160405280805190602001909190805190602001909190805190602001909190505082828260008060016000806101000a81548160ff02191690831515021790555033600060016101000a81548173ffffffffffffffffffffffffffffffffffffffff021916908373ffffffffffffffffffffffffffffffffffffffff16021790555084600160006101000a81548173ffffffffffffffffffffffffffffffffffffffff021916908373ffffffffffffffffffffffffffffffffffffffff16021790555083600260006101000a81548173ffffffffffffffffffffffffffffffffffffffff021916908373ffffffffffffffffffffffffffffffffffffffff1602179055508260048190555060088281548110151561019557fe5b906000526020600020900154600581905550806006819055504260038190555060006007819055507f477e2e8dd85e51edd0507b2218057a80d5dfe5e0ed7f88ed485ac61d14136aea60405160405180910390a1505050505050505061026f565b828054828255906000526020600020908101928215610239579160200282015b82811115610238578251829062ffffff16905591602001919060010190610216565b5b509050610246919061024a565b5090565b61026c91905b80821115610268576000816000905550600101610250565b5090565b90565b6105bd8061027e6000396000f300606060405260043610610078576000357c0100000000000000000000000000000000000000000000000000000000900463ffffffff16806302fb0c5e1461007d57806307da68f5146100aa5780633ccfd60b146100bf57806343d726d6146100c957806363bd1d4a146100de578063893d20e8146100e8575b600080fd5b341561008857600080fd5b61009061013d565b604051808215151515815260200191505060405180910390f35b34156100b557600080fd5b6100bd61014f565b005b6100c76101c7565b005b34156100d457600080fd5b6100dc610346565b005b6100e66103dd565b005b34156100f357600080fd5b6100fb61054d565b604051808273ffffffffffffffffffffffffffffffffffffffff1673ffffffffffffffffffffffffffffffffffffffff16815260200191505060405180910390f35b6000809054906101000a900460ff1681565b600060019054906101000a900473ffffffffffffffffffffffffffffffffffffffff1673ffffffffffffffffffffffffffffffffffffffff163373ffffffffffffffffffffffffffffffffffffffff161415156101ab57600080fd5b60008060006101000a81548160ff021916908315150217905550565b6000600260009054906101000a900473ffffffffffffffffffffffffffffffffffffffff1673ffffffffffffffffffffffffffffffffffffffff163373ffffffffffffffffffffffffffffffffffffffff1614151561022557600080fd5b600060075411151561023657600080fd5b3073ffffffffffffffffffffffffffffffffffffffff16319050600260009054906101000a900473ffffffffffffffffffffffffffffffffffffffff1673ffffffffffffffffffffffffffffffffffffffff166108fc6007549081150290604051600060405180830381858888f1935050505015156102b457600080fd5b60075481033073ffffffffffffffffffffffffffffffffffffffff16311415156102da57fe5b7f9e71ef5bec9d77bf31fcafa42f70e6dcee713d7d762834f70e84e725cc43f75c6007544260405180807f53756363657373000000000000000000000000000000000000000000000000008152506020018381526020018281526020019250505060405180910390a150565b600060019054906101000a900473ffffffffffffffffffffffffffffffffffffffff1673ffffffffffffffffffffffffffffffffffffffff163373ffffffffffffffffffffffffffffffffffffffff161415156103a257600080fd5b600060019054906101000a900473ffffffffffffffffffffffffffffffffffffffff1673ffffffffffffffffffffffffffffffffffffffff16ff5b600160009054906101000a900473ffffffffffffffffffffffffffffffffffffffff1673ffffffffffffffffffffffffffffffffffffffff163373ffffffffffffffffffffffffffffffffffffffff1614151561043957600080fd5b610441610576565b600060075411151561045257600080fd5b3073ffffffffffffffffffffffffffffffffffffffff163160075411156104e1577f9e71ef5bec9d77bf31fcafa42f70e6dcee713d7d762834f70e84e725cc43f75c6007544260405180807f50656e64696e67000000000000000000000000000000000000000000000000008152506020018381526020018281526020019250505060405180910390a161054b565b7f9e71ef5bec9d77bf31fcafa42f70e6dcee713d7d762834f70e84e725cc43f75c6007544260405180807f4170706c696564000000000000000000000000000000000000000000000000008152506020018381526020018281526020019250505060405180910390a15b565b60008060019054906101000a900473ffffffffffffffffffffffffffffffffffffffff16905090565b426003819055506004546007600082825401925050819055505600a165627a7a72305820117d103e59233980f5feb09e7fe41c6661dfc40990896367912b13bc89a726d70029606060405260a060405190810160405280600062ffffff16815260200162049d4062ffffff16815260200162093a8062ffffff1681526020016212750062ffffff1681526020016224ea0062ffffff168152506008906005610062929190610209565b50341561006e57600080fd5b60405160a08061088283398101604052808051906020019091908051906020019091908051906020019091908051906020019091908051906020019091905050848484848460016000806101000a81548160ff02191690831515021790555033600060016101000a81548173ffffffffffffffffffffffffffffffffffffffff021916908373ffffffffffffffffffffffffffffffffffffffff16021790555084600160006101000a81548173ffffffffffffffffffffffffffffffffffffffff021916908373ffffffffffffffffffffffffffffffffffffffff16021790555083600260006101000a81548173ffffffffffffffffffffffffffffffffffffffff021916908373ffffffffffffffffffffffffffffffffffffffff160217905550826004819055506008828154811015156101a657fe5b906000526020600020900154600581905550806006819055504260038190555060006007819055507f477e2e8dd85e51edd0507b2218057a80d5dfe5e0ed7f88ed485ac61d14136aea60405160405180910390a150505050505050505050610282565b82805482825590600052602060002090810192821561024c579160200282015b8281111561024b578251829062ffffff16905591602001919060010190610229565b5b509050610259919061025d565b5090565b61027f91905b8082111561027b576000816000905550600101610263565b5090565b90565b6105f1806102916000396000f300606060405260043610610078576000357c0100000000000000000000000000000000000000000000000000000000900463ffffffff16806302fb0c5e1461007d57806307da68f5146100aa5780633ccfd60b146100bf57806343d726d6146100c957806363bd1d4a146100de578063893d20e8146100e8575b600080fd5b341561008857600080fd5b61009061013d565b604051808215151515815260200191505060405180910390f35b34156100b557600080fd5b6100bd61014f565b005b6100c76101c7565b005b34156100d457600080fd5b6100dc610346565b005b6100e66103dd565b005b34156100f357600080fd5b6100fb61054d565b604051808273ffffffffffffffffffffffffffffffffffffffff1673ffffffffffffffffffffffffffffffffffffffff16815260200191505060405180910390f35b6000809054906101000a900460ff1681565b600060019054906101000a900473ffffffffffffffffffffffffffffffffffffffff1673ffffffffffffffffffffffffffffffffffffffff163373ffffffffffffffffffffffffffffffffffffffff161415156101ab57600080fd5b60008060006101000a81548160ff021916908315150217905550565b6000600260009054906101000a900473ffffffffffffffffffffffffffffffffffffffff1673ffffffffffffffffffffffffffffffffffffffff163373ffffffffffffffffffffffffffffffffffffffff1614151561022557600080fd5b600060075411151561023657600080fd5b3073ffffffffffffffffffffffffffffffffffffffff16319050600260009054906101000a900473ffffffffffffffffffffffffffffffffffffffff1673ffffffffffffffffffffffffffffffffffffffff166108fc6007549081150290604051600060405180830381858888f1935050505015156102b457600080fd5b60075481033073ffffffffffffffffffffffffffffffffffffffff16311415156102da57fe5b7f9e71ef5bec9d77bf31fcafa42f70e6dcee713d7d762834f70e84e725cc43f75c6007544260405180807f53756363657373000000000000000000000000000000000000000000000000008152506020018381526020018281526020019250505060405180910390a150565b600060019054906101000a900473ffffffffffffffffffffffffffffffffffffffff1673ffffffffffffffffffffffffffffffffffffffff163373ffffffffffffffffffffffffffffffffffffffff161415156103a257600080fd5b600060019054906101000a900473ffffffffffffffffffffffffffffffffffffffff1673ffffffffffffffffffffffffffffffffffffffff16ff5b600160009054906101000a900473ffffffffffffffffffffffffffffffffffffffff1673ffffffffffffffffffffffffffffffffffffffff163373ffffffffffffffffffffffffffffffffffffffff1614151561043957600080fd5b610441610576565b600060075411151561045257600080fd5b3073ffffffffffffffffffffffffffffffffffffffff163160075411156104e1577f9e71ef5bec9d77bf31fcafa42f70e6dcee713d7d762834f70e84e725cc43f75c6007544260405180807f50656e64696e67000000000000000000000000000000000000000000000000008152506020018381526020018281526020019250505060405180910390a161054b565b7f9e71ef5bec9d77bf31fcafa42f70e6dcee713d7d762834f70e84e725cc43f75c6007544260405180807f4170706c696564000000000000000000000000000000000000000000000000008152506020018381526020018281526020019250505060405180910390a15b565b60008060019054906101000a900473ffffffffffffffffffffffffffffffffffffffff16905090565b60008060004260065403101561058e57600654610590565b425b915060055460035483038115156105a357fe5b06905042600381905550600454810260076000828254019250508190555050505600a165627a7a72305820f842229d73a217ae6a866e77e520221bee6307a9be64f8dc0aeaebf7207207da0029a165627a7a72305820cb93171ea82a6837581a919b7fb22072d0764bda26184ec795eb3afca857fad60029",
  "source": "pragma solidity ^0.4.16;\r\n\r\nimport \"../../SafeContract.sol\";\r\nimport \"../../SafeMath.sol\";\r\n\r\ncontract EmploymentRecord is Owned, Mutex {\r\n    enum EmploymentType {OWNER, PERM, CASUAL, CONTRACT}\r\n    event EmployeeCreationEvent( );\r\n    event CheckPaymentEvent(address paymentContract);\r\n    event AccessEmployeeEvent(\r\n        bool active,\r\n        EmploymentType status,\r\n        bytes16 fName,\r\n        bytes16 lName\r\n    );\r\n    struct Employee {\r\n        bool active;\r\n        EmploymentType status;\r\n        bytes16 fName;\r\n        bytes16 lName;\r\n    }\r\n\r\n    // maps employee address to a employee struct\r\n    mapping (address => Employee) public employees;\r\n    address[] public employeeIndex;\r\n\r\n    // maps employee address to contract address\r\n    mapping (address => address) public paymentContracts;\r\n    address[] public paymentIndex;\r\n\r\n    function setEmployee(\r\n        EmploymentType _status,\r\n        address _addr,\r\n        bytes16 _fName,\r\n        bytes16 _lName\r\n    )\r\n        public\r\n        onlyOwner\r\n    {\r\n        require(employees[_addr].active == false);\r\n\r\n        // Creating new Employee and recording the address\r\n        Employee memory e = Employee(true,_status, _fName, _lName);\r\n        employees[_addr] = e;\r\n        employeeIndex.push(_addr);\r\n\r\n        EmployeeCreationEvent();\r\n    }\r\n\r\n    // Access an Employee by its address, and returns an event for the DApp\r\n    function accessEmployee(address _addr) external noReentrancy returns(bool){\r\n        Employee memory e = employees[_addr];\r\n        AccessEmployeeEvent(e.active,e.status,e.fName,e.lName);\r\n        return e.active;\r\n    }\r\n\r\n    // Consider making payable for during creation\r\n    function createPayment(\r\n        EmploymentType _status,\r\n        address _employer,\r\n        address _employee,\r\n        uint256 _pay,\r\n        uint256 _freq,\r\n        uint256 _end\r\n    )\r\n        public\r\n        onlyOwner\r\n        returns(address _newPayment)\r\n    {\r\n        require(paymentIndex.length < 100);\r\n        require(!employees[_employee].active);\r\n\r\n        Payment p = Payment(paymentContracts[_employee]);\r\n        require(!p.active());\r\n\r\n        // Creating different payment contracts based off the employment types\r\n        if (_status == EmploymentRecord.EmploymentType.PERM || _status == EmploymentRecord.EmploymentType.OWNER) {\r\n            PermanentPay _perm = new PermanentPay(_employer,_employee,_pay,_freq);\r\n            paymentContracts[_employee] = _perm;\r\n            paymentIndex.push(_perm);\r\n            return _perm;\r\n        } else if (_status == EmploymentRecord.EmploymentType.CASUAL) {\r\n            CasualPay _casual = new CasualPay(_employer,_employee,_pay);\r\n            paymentContracts[_employee] = _casual;\r\n            paymentIndex.push(_casual);\r\n            return _casual;\r\n        } else if (_status == EmploymentRecord.EmploymentType.CONTRACT) {\r\n            ContractPay _contract = new ContractPay(_employer,_employee,_pay,_freq,_end);\r\n            paymentContracts[_employee] = _contract;\r\n            paymentIndex.push(_contract);\r\n            return _contract;\r\n        } else {\r\n            revert();\r\n        }\r\n        CheckPaymentEvent(paymentContracts[_employee]);\r\n    }\r\n\r\n    function checkPayment() external noReentrancy {\r\n        // Ensuring that only the exact employee can access and that the employee is active\r\n        require(employees[msg.sender].active);\r\n        CheckPaymentEvent(paymentContracts[msg.sender]);\r\n    }\r\n\r\n    function ownerCheckPayment(address _employee) external onlyOwner {\r\n        // Ensuring the only the employee is active\r\n        require(employees[_employee].active);\r\n        CheckPaymentEvent(paymentContracts[_employee]);\r\n    }\r\n\r\n\r\n    function updateEmployeeActiveFlag(address _employee, bool _active) public onlyOwner {\r\n        employees[_employee].active = _active;\r\n    }\r\n\r\n    function updateEmployeeStatus(address _employee, EmploymentType _status) public onlyOwner {\r\n        employees[_employee].status = _status;\r\n    }\r\n\r\n    function getPaymentContractCount( ) public constant returns(uint256 _length) {\r\n        return paymentIndex.length;\r\n    }\r\n}\r\n\r\n\r\ncontract Payment is Owned {\r\n    event PaymentCreationEvent( );\r\n    event PaymentEvent (\r\n        bytes16 msg,\r\n        uint256 pay,\r\n        uint256 datePaid\r\n    );\r\n\r\n    address employer; address employee;\r\n    uint256 lastUpdate; uint256 payPer; uint256 freq; uint256 endTime; uint256 owed;\r\n    uint256[] private FREQUENCIES = [0, 0.5 weeks, 1 weeks, 2 weeks, 4 weeks];\r\n\r\n    // Considering making it payable\r\n    function Payment(\r\n        address _employer,\r\n        address _employee,\r\n        uint256 _pay,\r\n        uint256 _freq,\r\n        uint256 _endTime\r\n    )\r\n        public\r\n    {\r\n        employer = _employer;\r\n        employee = _employee;\r\n        payPer = _pay;\r\n        freq = FREQUENCIES[_freq];\r\n        endTime = _endTime;\r\n        lastUpdate = now;\r\n        owed = 0;\r\n        PaymentCreationEvent();\r\n    }\r\n\r\n    // Functions only when payout was previously called\r\n    function withdraw( ) external payable {\r\n        // Withdrawal Authorization, Employee\r\n        require(msg.sender == employee);\r\n        require(owed > 0);\r\n\r\n        // Money Transfer\r\n        uint balanceBefore = this.balance;\r\n        employee.transfer(owed);\r\n        assert(this.balance == balanceBefore-owed);\r\n\r\n        PaymentEvent(\"Success\",owed,now);\r\n    }\r\n\r\n    // Is required to refill a Payment contract for the Employee to withdraw\r\n    function payout( ) external payable {\r\n        // Payout Authorization, Employer\r\n        require(msg.sender == employer);\r\n        setPay();\r\n        require(owed > 0);\r\n\r\n        // Ensuring that Payment is capable of paying\r\n        if (owed > this.balance) {\r\n            PaymentEvent(\"Pending\",owed,now);\r\n        } else {\r\n            PaymentEvent(\"Applied\",owed,now);\r\n        }\r\n    }\r\n\r\n    function setPay( ) internal;\r\n}\r\n\r\n\r\ncontract PermanentPay is Payment {\r\n    function PermanentPay(\r\n        address _employer,\r\n        address _employee,\r\n        uint256 _pay,\r\n        uint256 _freq\r\n    )\r\n        Payment(_employer,_employee, _pay, _freq, 0)\r\n        public\r\n    { }\r\n\r\n    // Based off of freq\r\n    function setPay( ) internal {\r\n        uint256 freqCount = (now-lastUpdate)%freq;\r\n        lastUpdate = now;\r\n        owed += freqCount*payPer;\r\n    }\r\n}\r\ncontract CasualPay is Payment {\r\n    function CasualPay(\r\n        address _employer,\r\n        address _employee,\r\n        uint256 _pay\r\n    )\r\n        Payment(_employer,_employee,_pay,0,0)\r\n        public\r\n     { }\r\n\r\n    function setPay( ) internal {\r\n        lastUpdate = now;\r\n        owed += payPer;\r\n    }\r\n}\r\ncontract ContractPay is Payment {\r\n    function ContractPay(\r\n        address _employer,\r\n        address _employee,\r\n        uint256 _pay,\r\n        uint256 _freq,\r\n        uint256 _endTime\r\n    )\r\n        Payment(_employer,_employee,_pay,_freq,_endTime)\r\n        public \r\n     { }\r\n\r\n    // Based off of freq and contract endTime\r\n    function setPay( ) internal {\r\n        uint256 benchmark = (endTime - now >= 0) ? now : endTime;\r\n        uint256 freqCount = (benchmark-lastUpdate)%freq;\r\n        lastUpdate = now;\r\n        owed += freqCount*payPer;\r\n    }\r\n}\r\n\r\n",
  "sourcePath": "C:\\Users\\Caleb\\Documents\\SourceTree\\ethTax\\src\\PayRoll\\contracts\\PayRoll.sol",
  "compiler": {
    "name": "solc",
    "version": "0.4.19+commit.c4cbbb05.Emscripten.clang"
  },
  "schemaVersion": "2.0.0",
  "updatedAt": "2018-03-01T21:41:43.496Z"
}