{
  "contractName": "Owned",
  "abi": [
    {
      "constant": true,
      "inputs": [],
      "name": "active",
      "outputs": [
        {
          "name": "",
          "type": "bool"
        }
      ],
      "payable": false,
      "stateMutability": "view",
      "type": "function"
    },
    {
      "constant": true,
      "inputs": [],
      "name": "owner",
      "outputs": [
        {
          "name": "",
          "type": "address"
        }
      ],
      "payable": false,
      "stateMutability": "view",
      "type": "function"
    },
    {
      "inputs": [],
      "payable": false,
      "stateMutability": "nonpayable",
      "type": "constructor"
    },
    {
      "constant": false,
      "inputs": [],
      "name": "stop",
      "outputs": [],
      "payable": false,
      "stateMutability": "nonpayable",
      "type": "function"
    },
    {
      "constant": false,
      "inputs": [],
      "name": "close",
      "outputs": [],
      "payable": false,
      "stateMutability": "nonpayable",
      "type": "function"
    }
  ],
  "bytecode": "0x6060604052341561000f57600080fd5b60016000806101000a81548160ff02191690831515021790555033600060016101000a81548173ffffffffffffffffffffffffffffffffffffffff021916908373ffffffffffffffffffffffffffffffffffffffff160217905550610286806100796000396000f300606060405260043610610062576000357c0100000000000000000000000000000000000000000000000000000000900463ffffffff16806302fb0c5e1461006757806307da68f51461009457806343d726d6146100a95780638da5cb5b146100be575b600080fd5b341561007257600080fd5b61007a610113565b604051808215151515815260200191505060405180910390f35b341561009f57600080fd5b6100a7610125565b005b34156100b457600080fd5b6100bc61019d565b005b34156100c957600080fd5b6100d1610234565b604051808273ffffffffffffffffffffffffffffffffffffffff1673ffffffffffffffffffffffffffffffffffffffff16815260200191505060405180910390f35b6000809054906101000a900460ff1681565b600060019054906101000a900473ffffffffffffffffffffffffffffffffffffffff1673ffffffffffffffffffffffffffffffffffffffff163373ffffffffffffffffffffffffffffffffffffffff1614151561018157600080fd5b60008060006101000a81548160ff021916908315150217905550565b600060019054906101000a900473ffffffffffffffffffffffffffffffffffffffff1673ffffffffffffffffffffffffffffffffffffffff163373ffffffffffffffffffffffffffffffffffffffff161415156101f957600080fd5b600060019054906101000a900473ffffffffffffffffffffffffffffffffffffffff1673ffffffffffffffffffffffffffffffffffffffff16ff5b600060019054906101000a900473ffffffffffffffffffffffffffffffffffffffff16815600a165627a7a7230582020b6295868758977b1dd658534f5db3e6f8dd21f50f18d510047727433893b600029",
  "source": "pragma solidity ^0.4.18;\r\n\r\ncontract Owned {\r\n    bool public active;\r\n    address public owner;\r\n\r\n    function Owned( ) public {\r\n        active = true;\r\n        owner = msg.sender;\r\n    }\r\n    \r\n    modifier onlyOwner {\r\n        require(msg.sender == owner);\r\n        _;\r\n    }\r\n\r\n    function stop( ) public onlyOwner { active = false; }\r\n    function close( ) public onlyOwner { selfdestruct(owner); }\r\n}\r\n\r\n\r\n// Used to prevent callback attacks\r\ncontract Mutex {\r\n    bool locked;\r\n    modifier noReentrancy( ) {\r\n        require(!locked);\r\n        locked = true;\r\n        _;\r\n        locked = false;\r\n    }\r\n}",
  "sourcePath": "C:\\Users\\Caleb\\Documents\\SourceTree\\ethTax\\src\\PayRoll\\contracts\\SafeContract.sol",
  "compiler": {
    "name": "solc",
    "version": "0.4.19+commit.c4cbbb05.Emscripten.clang"
  },
  "schemaVersion": "2.0.0",
  "updatedAt": "2018-03-04T05:27:34.972Z"
}