{
  "contractName": "Taxable",
  "abi": [
    {
      "constant": true,
      "inputs": [],
      "name": "active",
      "outputs": [
        {
          "name": "",
          "type": "bool"
        }
      ],
      "payable": false,
      "stateMutability": "view",
      "type": "function"
    },
    {
      "constant": false,
      "inputs": [],
      "name": "stop",
      "outputs": [],
      "payable": false,
      "stateMutability": "nonpayable",
      "type": "function"
    },
    {
      "constant": false,
      "inputs": [],
      "name": "close",
      "outputs": [],
      "payable": false,
      "stateMutability": "nonpayable",
      "type": "function"
    },
    {
      "constant": true,
      "inputs": [],
      "name": "owner",
      "outputs": [
        {
          "name": "",
          "type": "address"
        }
      ],
      "payable": false,
      "stateMutability": "view",
      "type": "function"
    },
    {
      "inputs": [
        {
          "name": "_addr",
          "type": "address"
        },
        {
          "name": "_taxType",
          "type": "uint8"
        },
        {
          "name": "_withHold",
          "type": "uint64"
        }
      ],
      "payable": false,
      "stateMutability": "nonpayable",
      "type": "constructor"
    }
  ],
  "bytecode": "0x6060604052341561000f57600080fd5b6040516060806103b58339810160405280805190602001909190805190602001909190805190602001909190505060016000806101000a81548160ff02191690831515021790555033600060016101000a81548173ffffffffffffffffffffffffffffffffffffffff021916908373ffffffffffffffffffffffffffffffffffffffff16021790555082600160006101000a81548173ffffffffffffffffffffffffffffffffffffffff021916908373ffffffffffffffffffffffffffffffffffffffff16021790555081600060156101000a81548160ff021916908360ff16021790555080600060166101000a81548167ffffffffffffffff021916908367ffffffffffffffff1602179055505050506102868061012f6000396000f300606060405260043610610062576000357c0100000000000000000000000000000000000000000000000000000000900463ffffffff16806302fb0c5e1461006757806307da68f51461009457806343d726d6146100a95780638da5cb5b146100be575b600080fd5b341561007257600080fd5b61007a610113565b604051808215151515815260200191505060405180910390f35b341561009f57600080fd5b6100a7610125565b005b34156100b457600080fd5b6100bc61019d565b005b34156100c957600080fd5b6100d1610234565b604051808273ffffffffffffffffffffffffffffffffffffffff1673ffffffffffffffffffffffffffffffffffffffff16815260200191505060405180910390f35b6000809054906101000a900460ff1681565b600060019054906101000a900473ffffffffffffffffffffffffffffffffffffffff1673ffffffffffffffffffffffffffffffffffffffff163373ffffffffffffffffffffffffffffffffffffffff1614151561018157600080fd5b60008060006101000a81548160ff021916908315150217905550565b600060019054906101000a900473ffffffffffffffffffffffffffffffffffffffff1673ffffffffffffffffffffffffffffffffffffffff163373ffffffffffffffffffffffffffffffffffffffff161415156101f957600080fd5b600060019054906101000a900473ffffffffffffffffffffffffffffffffffffffff1673ffffffffffffffffffffffffffffffffffffffff16ff5b600060019054906101000a900473ffffffffffffffffffffffffffffffffffffffff16815600a165627a7a72305820fa1f5cfd8c436787de3facf17e394fc9ef8aca159f7af290e4be617d2e3687bc0029",
  "source": "pragma solidity ^0.4.16;\r\n\r\nimport \"./SafeContract.sol\";\r\nimport \"./SafeMath.sol\";\r\n\r\n// Expects a TaxEntity enum for types to be made when implemented\r\ncontract TaxAgency is Owned {\r\n    event TaxEntityCreation( );\r\n\r\n    struct TaxEntity {\r\n        bool isDomestic;\r\n        bool isIndividual;\r\n        bool active;\r\n        uint8 entityType;\r\n        uint32 taxId; // at most a 10 digit number\r\n        bytes32 taxEntityName;\r\n    }\r\n\r\n    mapping (address => TaxEntity) public taxEntities;\r\n    mapping (address => address[]) public taxReturns;\r\n    address[] public taxEntityIndex;\r\n\r\n    function setTaxEntity(\r\n        address _addr,\r\n        bool _isDomestic,\r\n        bool _isIndividual,\r\n        uint8 _type,\r\n        uint32 _taxId,\r\n        bytes32 _name\r\n    )\r\n        public\r\n        onlyOwner\r\n    {\r\n        require(!taxEntities[_addr].active);\r\n\r\n        TaxEntity memory b = TaxEntity(_isDomestic,_isIndividual,true,_type,_taxId,_name);\r\n        taxEntities[_addr] = b;\r\n        taxEntityIndex.push(_addr);\r\n\r\n        TaxEntityCreation();\r\n    }\r\n    function setTaxReturn(address _taxEntity, address _taxReturn) external {\r\n        require(taxEntities[_taxEntity].active);\r\n        taxReturns[_taxEntity].push(_taxReturn);\r\n    }\r\n    //function updateTaxEntity() public;\r\n    function returnTaxReturn() public constant returns(uint taxOwed, uint taxRefund);\r\n}\r\n\r\n\r\n// Depends on preexisting Tax Agency\r\n// Recall owner is directly the tax payer\r\ncontract TaxReturn is Owned {\r\n    // Modifiable to later updates for the Tax Agencies\r\n    enum TaxType {INCOME,CAPITAL,WINS,DIVIDENDS}\r\n\r\n    event FiledTaxItemEvent(\r\n        uint8 taxType,\r\n        uint64 withHolding,\r\n        uint256 dateFiled\r\n    );\r\n\r\n    uint16 taxableYear; // x <= 6.55e+3\r\n    uint64 taxOwed; // x <= 1.84e+19\r\n    uint64[4] itemizedTaxes; // Also modifiable for future updates\r\n    address taxAgency;\r\n\r\n    function fileTaxItem(TaxType _taxType, uint64 _withHolding) external {\r\n        taxOwed += _withHolding;\r\n        itemizedTaxes[uint8(_taxType)] += _withHolding;\r\n\r\n        FiledTaxItemEvent(uint8(_taxType), _withHolding, now);\r\n    }\r\n}\r\n\r\n\r\n// Depends on preexisting TaxReturn contract\r\n// Recall owner is directly the service provider, or employer\r\ncontract Taxable is Owned {\r\n    uint8 taxType;\r\n    uint64 withHolding;\r\n    address taxReturnId;\r\n\r\n    modifier taxableIncome {\r\n        _;\r\n        // Report withholding\r\n        assert(taxReturnId.call(bytes4(keccak256(\"fileTaxItem(TaxReturn.TaxType,uint64)\")), TaxReturn.TaxType(taxType), withHolding));\r\n    }\r\n\r\n    function Taxable(address _addr, uint8 _taxType, uint64 _withHold) public {\r\n        taxReturnId = _addr;\r\n        taxType = _taxType;\r\n        withHolding = _withHold;\r\n    }\r\n}\r\n",
  "sourcePath": "C:\\Users\\Caleb\\Documents\\SourceTree\\ethTax\\src\\PayRoll\\contracts\\TaxFramework.sol",
  "compiler": {
    "name": "solc",
    "version": "0.4.19+commit.c4cbbb05.Emscripten.clang"
  },
  "schemaVersion": "2.0.0",
  "updatedAt": "2018-03-04T04:44:59.996Z"
}